:06000300010A00010C01DE
:1001530012016B12009A8F0BE50B64016005E50B2E
:08016300B402F0850B0C80EBE7
:03000B000200FBF5
:0B00FB00C0E0C0D075D000C000C007FE
:10010600758A18758CFC0509E50970020508C39403
:10011600C8E5089400402D750800750900E50CB483
:100126000205E50A048009E50CB40108E50A24077E
:100136005407F50AAF0A7401A807088002C333D82A
:04014600FCF4F5A030
:09014A00D007D000D0D0D0E03283
:10016B005389F0438901758A18758CFCC28DD28C2A
:07017B00D2A9D2AFC2B922E4
:10018200EF4E600F7D027CEFDCFEDDFCEF1F70F0B6
:030192001E80EDDF
:010195002247
:10009A00E4F50D20B1137F14FE12018230B1FD7F09
:1000AA00147E00120182750D0120B0147F147E00A7
:1000BA0012018230B0FD7F147E00120182750D029A
:1000CA0020B2147F147E0012018230B2FD7F147EAA
:1000DA0000120182750D0320B3147F147E001201F1
:1000EA008230B3FD7F147E00120182750D04AF0DBC
:0100FA0022E3
:0300000002000EED
:0C000E00787FE4F6D8FD75810D020055E6
:10001A00020153E493A3F8E493A34003F68001F2A8
:10002A0008DFF48029E493A3F85407240CC8C333E7
:10003A00C4540F4420C8834004F456800146F6DFB6
:10004A00E4800B0102040810204080900003E47E43
:10005A00019360BCA3FF543F30E509541FFEE493AB
:10006A00A360010ECF54C025E060A840B8E493A372
:10007A00FAE493A3F8E493A3C8C582C8CAC583CA9D
:10008A00F0A3C8C582C8CAC583CADFE9DEE780BE55
:0100090000F6
:00000001FF
