:10011300EF4E600F7D027CEFDCFEDDFCEF1F70F025
:030123001E80ED4E
:0101260022B6
:1000FC005389F0438901758A18758CFCC28DD28C9A
:07010C00D2A9D2AFC2B92253
:03001E00010800D6
:030023000200B226
:1000B200C0E0C0F0C083C082C0D075D000C000C014
:1000C20001C002C003C004C005C006C00730980FBB
:1000D200E599F4F508AF99120133C2988508A0D0CA
:1000E20007D006D005D004D003D002D001D000D072
:0A00F200D0D082D083D0F0D0E032ED
:0C0127001200037FE87E0312011380F732
:1000030075985043878053890F438920758BF47506
:0B0013008DF4C2ABD28ED2AFD2AC2273
:080133008F993099FDC2992259
:03000000020026D5
:0C002600787FE4F6D8FD75810802006DBB
:10003200020127E493A3F8E493A34003F68001F2BC
:1000420008DFF48029E493A3F85407240CC8C333CF
:10005200C4540F4420C8834004F456800146F6DF9E
:10006200E4800B010204081020408090001EE47E10
:10007200019360BCA3FF543F30E509541FFEE49393
:10008200A360010ECF54C025E060A840B8E493A35A
:10009200FAE493A3F8E493A3C8C582C8CAC583CA85
:1000A200F0A3C8C582C8CAC583CADFE9DEE780BE3D
:0100210000DE
:00000001FF
