:1004F600EF4E600F7D027CEFDCFEDDFCEF1F70F03F
:030506001E80ED67
:0105090022CF
:06051E00C2A58F80D2A7E8
:080524007F027EEFDEFEDFFC2A
:01052C0022AC
:0A053900C2A612051EC2A702052487
:10048F00CFCDCFCECCCE1202AD7C007D0A1202AD05
:04049F00ED2430FF19
:0A04A300D2A612051EC2A70205240E
:1004CA00AE07BE0104ED148006BE0209ED243F44C6
:0604DA0080FF120539222B
:10050A007F381205397F0C1205397F061205397FAB
:04051A00010205399C
:0A054300AC031204CAAF040204A3C3
:06046C008B088A09890AD1
:100472001204CAE4FDAB08AA09A90A8D8275830099
:0C04820012026EFF60061204A30D80E958
:01048E00224B
:0C0439007F0AEA24FFFDE434FFFC7E0093
:080445008E0D8F0E8C0F8D103F
:10044D007F017E00E4FBEBC39510E50F6480F8742B
:0E045D008098500AAC0DAD0E12029B0B80E889
:01046B00226E
:0404AD008A0A8B0B21
:1004B1001204CAAA0CEAD39400400D120439AC0A02
:0804C100AD0B12048F1A80ED4F
:0104C9002210
:10038E001204CAC3EA64809480400B7F2B1204A32C
:10039E008A168B17800E7F2D1204A3C3E49BF517CC
:1003AE00E49AF516AA15EAD39400400D120439AC5E
:0903BE0016AD1712048F1A80ED30
:0103C7002213
:0403C8008A1A8B1BE7
:1003CC001204CAAA1CEAD3940040297F1012043BE1
:1003DC00AC1AAD1BCFCDCFCECCCE1202ADEF540F9D
:1003EC00FEC3940AEE5004243080022437FF12041A
:0403FC00A31A80D1EF
:0104000022D9
:040401008A1F8B20A3
:100405001204CAAA21EAD394004028EA24FFFDE495
:1004150034FFFC7F027E00120445AC1FAD20CFCD1A
:10042500CFCECCCE1202ADEF54012430FF1204A37F
:030435001A80D258
:0104380022A1
:1004E00050617373776F72643A00202020004F4B85
:0604F000200045525200FD
:0B052D00012400022500000222000053
:10018C0012050A750C04AB26AA257D017F02120408
:10019C00AD7BFF7A0479E07D017F0112046C1200C3
:1001AC00038F24E52460F77BFF7A0479EA7D0E7FC8
:1001BC000112046CE524D3940A5036C3E52394044D
:1001CC00E5229400502BE52475F00A8485F024AECA
:1001DC0025AF267C007D0A12029B8E258F26E524F6
:1001EC002526F526E43525F5250523E5237002059E
:1001FC0022E524640B7030E526B4B315E525B4155F
:10020C0010E5236404452270087BFF7A0479EE80A4
:10021C00067BFF7A0479F27D0E7F0112046CE4F503
:10022C0025F526F522F523E524B40C22D3E52394F9
:10023C0000E52294004017AE25AF267C007D0A1203
:10024C0002AD8E258F26E523152370021522750C21
:10025C0004AB26AA257D017F021204ADE4F524022D
:02026C0001AAE5
:10000300E4F5087590FFC2932097137F14FE120442
:10001300F63097FD7F147E001204F67508012096D2
:10002300147F147E001204F63096FD7F147E0012B6
:1000330004F67508052095147F147E001204F6302B
:1000430095FD7F147E001204F67508092094147F31
:10005300147E001204F63094FD7F147E001204F621
:1000630075080D7590FFC2922097147F147E0012BD
:1000730004F63097FD7F147E001204F67508022003
:1000830096147F147E001204F63096FD7F147E00D2
:100093001204F67508062095147F147E001204F6E8
:1000A3003095FD7F147E001204F675080A2094141F
:1000B3007F147E001204F63094FD7F147E00120438
:1000C300F675080E7590FFC2912097147F147E0079
:1000D3001204F63097FD7F147E001204F6750803B0
:1000E3002096147F147E001204F63096FD7F147E52
:1000F300001204F67508072095147F147E0012047D
:10010300F63095FD7F147E001204F675080B2094DB
:10011300147F147E001204F63094FD7F147E0012C7
:1001230004F675080F7590FFC2902097147F147E14
:10013300001204F63097FD7F147E001204F6750852
:10014300042096147F147E001204F63096FD7F146B
:100153007E001204F67508082095147F147E0012A1
:1001630004F63095FD7F147E001204F675080C200A
:1001730094147F147E001204F63094FD7F147E00E5
:080183001204F6750810AF0824
:01018B002251
:03000000020302F6
:0C030200787FE4F6D8FD758126020349DF
:10026E00BB010CE58229F582E5833AF583E0225045
:10027E0006E92582F8E622BBFE06E92582F8E2228F
:0D028E00E58229F582E5833AF583E49322A9
:10029B00EF8DF0A4A8F0CF8CF0A428CE8DF0A42E77
:0202AB00FE2231
:1002AD00BC000BBE0029EF8DF084FFADF022E4CC35
:1002BD00F875F008EF2FFFEE33FEEC33FCEE9DECFE
:1002CD00984005FCEE9DFE0FD5F0E9E4CEFD22ED44
:1002DD00F8F5F0EE8420D21CFEADF075F008EF2F8E
:1002ED00FFED33FD4007985006D5F0F222C398FD7F
:0502FD000FD5F0EA221C
:10030E0002018CE493A3F8E493A34003F68001F278
:10031E0008DFF48029E493A3F85407240CC8C333F0
:10032E00C4540F4420C8834004F456800146F6DFBF
:10033E00E4800B010204081020408090052DE47E1D
:10034E00019360BCA3FF543F30E509541FFEE493B4
:10035E00A360010ECF54C025E060A840B8E493A37B
:10036E00FAE493A3F8E493A3C8C582C8CAC583CAA6
:10037E00F0A3C8C582C8CAC583CADFE9DEE780BE5E
:0105380000C2
:00000001FF
