:060330000126000125007A
:10037800E525601E0529E529B46417E4F529052754
:10038800E527B43C0DE4F5270528E528B43C03E44B
:03039800F5282223
:10000E001203BC1204258F26E526B4010CE52570DB
:10001E00047F0180027F008F25E526B40207E4F5F8
:10002E0028F527F529E5266403702CE528FD7C00CC
:10003E007F011203547F057E001203E9E527FD7C44
:10004E00007F021203547F057E001203E9E529FDAD
:10005E007C007F03120354E526B404157F011202BF
:10006E00D68F287F021202D68F277F031202D68FD9
:10007E0029E52875F00A84FD7C007F01120413E542
:10008E002875F00A84E5F0FD7C007F021204137DD2
:10009E000B7C007F03120413E52775F00A84FD7CA8
:1000AE00007F04120413E52775F00A84E5F0FD7C49
:1000BE00007F051204137D0B7C007F06120413E5EE
:1000CE002975F00A84FD7C007F07120413E529755B
:1000DE00F00A84E5F0FD7C007F0812041302001183
:03000B000200EE02
:1000EE00C0E0C0F0C083C082C0D075D000C000C0D8
:0D00FE0001C002C003C004C005C006C00759
:10010B00758A18758CFC0520E5207002051FC394B9
:10011B0014E51F94004009751F0075200012026C36
:10012B000522E52270020521C39402E521940040CB
:10013B000975210075220012039B0524E52470022A
:10014B000523C3940AE52394004009752300752405
:04015B000012037813
:10015F00D007D006D005D004D003D002D001D000F4
:0B016F00D0D0D082D083D0F0D0E0329E
:1003E900EF4E600F7D027CEFDCFEDDFCEF1F70F04D
:0303F9001E80ED76
:0103FC0022DE
:05042500E4AF2CF52CF2
:01042A0022AF
:1003D300E4FF20B1010F20B0027F0220B2027F03AD
:0503E30020B3027F04BD
:0103E80022F2
:10026C00852A2B1203D38F2AE52BB40107E52A70BC
:10027C0003752C01E52BB40207E52A7003752C02DB
:10028C00E52BB40307E52A7003752C03E52BB404A6
:08029C0007E52A7003752C042C
:0102A4002237
:1003BC005389F0438901758A18758CFCC28DD28CD7
:0703CC00D2A9D2AFC2B92291
:100336000C133F065B4F666D7D077F6F0040090A11
:0D034600000A0A0A0A0A0A0A0A020800014F
:09041300AE05740A2FF8A60622BA
:10020600E4F580EF14B40800505490021E75F00314
:10021600A4C58325F0C5837302023602023A0202A0
:100226003E02024202024602024E02025602025EEC
:10023600D2A4800ED2A48012D2A48016D2A4801A90
:10024600C2A4D2A3D2A28016C2A4D2A3C2A2800EF6
:10025600C2A4C2A3D2A28006C2A4C2A3C2A274131D
:060266002DF8E6F58022F0
:10039B00AF09740A2FF8E6FD7C001202060509E589
:1003AB000970020508640945087005F5087509010F
:0103BB00221F
:100354008F2D8C2E8D2F12041C7FA01202A5120348
:10036400FDAF2D1202A51203FDAF2F1202A5120339
:04037400FD02000383
:0202D6008F2D6A
:1002D80012041C7FA01202A51203FDAF2D1202A565
:1002E8001203FD12041C7FA11202A51203FD1203C2
:0D02F800068F2E7F01120409120003AF2EA5
:0103050022D5
:09041C00D2A0D2A1C2A0C2A1220B
:07000300C2A0D2A1D2A0228D
:0202A500A907A7
:1002A700E4FBFAAF0374807E00A807088006CEA29D
:1002B700E713CE13D8F8FFE9FDEF5D24FF92A0D234
:0E02C700A1C2A10BBB00010AEB64084A70D56E
:0102D5002206
:10030600E4FFFEFDD2A0D2A130A00FAC077480A8F6
:1003160004088002C313D8FC4205C2A10FBF000126
:090326000EEF64084E70DFAF0514
:01032F0022AB
:0A040900EF24FF92A0D2A1C2A122AD
:0B03FD00E4D2A0D2A1A2A033FFC2A155
:0104080022D1
:0300000002017A80
:0C017A00787FE4F6D8FD75812F0201C1EA
:1001860002000EE493A3F8E493A34003F68001F281
:1001960008DFF48029E493A3F85407240CC8C3337A
:1001A600C4540F4420C8834004F456800146F6DF49
:1001B600E4800B0102040810204080900330E47EA6
:1001C600019360BCA3FF543F30E509541FFEE4933E
:1001D600A360010ECF54C025E060A840B8E493A305
:1001E600FAE493A3F8E493A3C8C582C8CAC583CA30
:1001F600F0A3C8C582C8CAC583CADFE9DEE780BEE8
:0103530000A9
:00000001FF
